S01700004B696C6C6572536174656C6C6974652E7372656303
S11300000C9434000C9446000C9446000C94460066
S11300100C9446000C9446000C9446000C94460044
S11300200C9446000C9446000C9446000C94460034
S11300300C9446000C9446000C9486000C944600E4
S11300400C9446000C9446000C9446000C94460014
S11300500C9446000C9446000C9446000C94460004
S11300600C9446000C94460011241FBECFEFD8E038
S1130070DEBFCDBF21E0A0E0B1E001C01D92A430FD
S1130080B207E1F70E9404010C9435010C940000BE
S1130090449A8FE39CE90197F1F700C0000044986B
S11300A08FE39CE90197F1F700C000000895459A99
S11300B08FE39CE90197F1F700C0000045988FE3B6
S11300C09CE90197F1F700C00000089580910201B6
S11300D0909103018F35914010F02A9A08952A983F
S11300E00895ECE7F0E09081907F90839081892BD4
S11300F08083EAE7F0E0808180648083808186FDEC
S1130100FDCF809178009091790008951F920F920D
S11301100FB60F9211242F933F934F935F936F93D6
S11301207F938F939F93AF93BF93EF93FF938091AC
S11301300001909101010196853191052CF4909371
S11301400101809300010FC010920101109200017F
S113015095B182E0892785B980E00E94710090936F
S1130160030180930201FF91EF91BF91AF919F91A1
S11301708F917F916F915F914F913F912F910F904C
S11301800FBE0F901F90189584E085B92FEF83ED73
S113019090E3215080409040E1F700C0000015B882
S11301A02FEF80E792E0215080409040E1F700C0BB
S11301B00000089584E085B92FEF34E39CE02150DA
S11301C030409040E1F700C0000015B82FEF34E351
S11301D09CE0215030409040E1F700C0000085B918
S11301E02FEF34E38CE0215030408040E1F700C031
S11301F0000015B89FEF24E33CE0915020403040CC
S1130200E1F700C0000008958FEF84B980EF87B94B
S11302100E94DA0082E084BD9EE497BD80936E0064
S1130220789415B885E085BD0E94C400EAE7F0E043
S11302308081806880830E94660011C00E946600ED
S11302404A9B07C085B1877E85B92B9A0E944800D6
S113025006C085B1877E85B92C9A0E9457004899BB
S1110260EDCF85B1877E85B9E6CFF894FFCF48
S9030000FC
